S016000053544B333230305F656D6C63645F322E73333732
S1130000001000204D01000079010000790100007A
S113001079010000790100007901000079010000F4
S113002079010000790100007901000079010000E4
S113003079010000790100007901000079010000D4
S113004079010000790100007901000079010000C4
S113005079010000790100007901000079010000B4
S113006079010000790100007901000079010000A4
S11300707901000079010000790100007901000094
S113008079010000790100007901000010B5064CE7
S11300902378002B07D1054B002B02D0044800E045
S11300A000BF0123237010BD0402002000000000E3
S11300B000490000044B10B5002B03D00349044849
S11300C000E000BF10BDC046000000000802002090
S11300D000490000164B002B00D1144B9D464022D2
S11300E092029A1A924600218B460F461348144AEC
S11300F0121A03F022F80F4B002B00D098470E4B36
S1130100002B00D098470020002104000D000D486A
S1130110002802D00C4800E000BF02F0C1FF20001C
S1130120290002F0DBFE02F0A5FFC0460000080033
S11301300010002000000000000000000402002065
S1130140B8040020000000000000000006488047BA
S11301500649074A074B9B1A03DD043BC858D05095
S1130160FBDCFFF7B7FF0000910200000C49000020
S11301700000002004020020FEE7C04680B582B0E3
S113018000AF00F01FF803007B60084B5B680F2290
S113019013407A68DA4013007B60054B7A681A6072
S11301A07B681800BD4602B080BDC04600800C408C
S11301B00800002080B500AF014B1800BD4680BD8B
S11301C000366E0180B582B000AF294BDA6AF023A5
S11301D09B0113408022520193420CD08022920151
S11301E0934204D080221201934208D00BE0214BA9
S11301F01B687B6036E080231B027B6032E01E4B71
S11302001B687B602EE01A4BDA68E023DB001340A6
S113021080229200934218D080229200934206D802
S1130220002B18D080225200934211D016E0C02235
S11302309200934206D08022D20093420ED10F4BFB
S11302407B600EE00E4B7B600BE00E4B7B6008E0A6
S11302500D4B7B6005E00D4B7B6002E000237B606F
S1130260C046C0467B681800BD4602B080BDC0468B
S113027000800C400400002000000020406F40017A
S1130280809FD500C0D8A70040B56400804F1200FD
S113029080B500AF024B034A9A60C046BD4680BD9C
S11302A000ED00E00000000080B500AF80231B02D9
S11302B01800BD4680BD80B500AFFA239B0018002E
S11302C0BD4680BD80B500AF024B1B681800BD461B
S11302D080BDC0460400002080B582B000AF114B41
S11302E07B60114B1B7801225340DBB2002B14D0EE
S11302F00D4B01221A700CE07B681B6898470300C1
S11303003B603B68002B01D03B6807E07B6804330B
S11303107B607B681B68002BEED100231800BD4670
S113032002B080BD0C0000204C02002080B584B0D7
S113033000AF78603960104B1B7801225340DBB268
S1130340002B02D00D4BFB6011E07B68002B0CDC12
S11303507B682C225A430A4BD1183B682C22180084
S113036002F0E2FE0023FB6001E0064BFB60FB6849
S11303701800BD4604B080BD4C0200200500118069
S1130380200200200200118080B584B000AF7860A4
S1130390124B1B7801225340DBB2002B02D0104BCE
S11303A0FB6016E00F4B1B68002B10DC0D4B1B6829
S11303B0591C0C4A11602C225A430B4BD3187968F0
S11303C02C22180002F0B0FE0023FB6001E0074B72
S11303D0FB60FB681800BD4604B080BD4C020020E1
S11303E0050011805002002020020020010011802D
S11303F080B58CB000AF00F0AFFA00F047FA00F01F
S1130400C7FA002300220F21022000F0D3FA0023B0
S113041000220721032000F0CDFA002300220B2143
S1130420042000F0C7FA002300220821002000F075
S1130430C1FA002300220A21002000F0BBFA0023A5
S113044000220A21042000F0B5FA40220A210420E7
S113045000F0FCFA0300FB62FB6A002B01D0FB6A8C
S113046035E03B001C4A1A603B0001221A743B0031
S113047000225A743B0080225A603B008022DA60DA
S11304803B005A683B009A603B00144A5A613B00A7
S1130490134A9A613B00134ADA613B00124A1A621A
S11304A03B00124A5A623B00114A9A623B00180010
S11304B0FFF76AFF0300FB62FB6A002B06D13B00D7
S11304C00121180000F025F800F044F8FB6A180038
S11304D0BD460CB080BDC046484100001305000075
S11304E0A1050000090600006306000021060000C3
S11304F0F504000080B584B000AF78600023FB6091
S113050000F02AFA00F0C2F9FB681800BD4604B0F6
S113051080BD80B582B000AF78600A00FB1C1A7001
S1130520FB1C1B78002B08D00821002000F068FA7F
S11305300A21002000F064FA07E00A21002000F0FC
S113054072FA0821002000F06EFA00231800BD465C
S113055002B080BD80B582B000AF0B21042000F052
S11305604FFA062000F004FA0C4B1B7804221343C4
S1130570DBB29AB2BB1D1A80BB1D0221180000F029
S1130580B1F9022000F0F4F90B21042000F04BFA39
S113059000231800BD4602B080BDC04654020020AE
S11305A080B586B000AFF860B9607A603B60BB6824
S11305B0DA087B6853437B61BB68802B01D00E4B08
S11305C016E00E4B1A687B69D2180D4B9A4204D977
S11305D03B6800221A600B4B0AE0084B1A683B6820
S11305E01A60064B1A687B69D218044B1A60002300
S11305F01800BD4606B080BD020011801400002022
S1130600D80200200100118080B582B000AF78606C
S11306103960024B1800BD4602B080BD0400118051
S113062080B586B000AFF860B9607A603B60BB68A3
S11306307B6100233B610BE07B69102200211800E1
S113064002F07BFD7B6910337B613B6901333B61C5
S11306503A693B689A42EFD300231800BD4606B0BE
S113066080BD80B588B000AFF860B9607A603B6047
S1130670BB68BB61BB6A0133BB620B21042000F081
S1130680BFF9062000F074F9BB6A9BB21B029BB24F
S1130690012213439AB216217B181A807B18022177
S11306A0180000F01FF90023FB612BE0BB69102147
S11306B0180000F017F9BB691033BB61FB6A013BFA
S11306C0FA699A4205D11623FB18012252421A8074
S11306D00FE0BB6A9AB2FB699BB2D3189BB2013399
S11306E09BB21B029BB2FF2213439AB21623FB1840
S11306F01A801623FB180221180000F0F3F8FB6996
S11307000133FB61FA69FB6A9A42CFD3022000F0FD
S11307102FF90B21042000F086F900231800BD46B0
S113072008B080BD80B582B000AF02003960FB1D07
S11307301A70FB1D1B78002B1FD0FB1D1B78012B8F
S113074019D0FB1D1B78022B13D0FB1D1B78032B28
S11307500DD0FB1D1B78042B07D0FB1D1B78052B2C
S113076001D13F230AE0002308E0134B06E0134BBA
S113077004E0134B02E0134B00E0134B3A681341BF
S11307800122134005D1114A114B1100180001F048
S11307905EF901223B689A4010000E49FB1D1A784D
S11307A01300DB009B189B00CB1814331860C04661
S11307B0BD4602B080BDC046F0FF0000FF0100004E
S11307C0FFFF0000F87900007FF70000DD03000060
S11307D0604100000060004080B582B000AF0200BC
S11307E03960FB1D1A70FB1D1B78002B1FD0FB1DED
S11307F01B78012B19D0FB1D1B78022B13D0FB1D7A
S11308001B78032B0DD0FB1D1B78042B07D0FB1D7D
S11308101B78052B01D13F230AE0002308E0134B8A
S113082006E0134B04E0134B02E0134B00E0134BC0
S11308303A6813410122134005D1114A114B1100AA
S1130840180001F004F901223B689A4010000E4997
S1130850FB1D1A781300DB009B189B00CB18103388
S11308601860C046BD4602B080BDC046F0FF00001F
S1130870FF010000FFFF0000F87900007FF700008F
S11308800C040000604100000060004090B589B095
S113089000AF0023FB613B1D0D4A13CA13C313CAE7
S11308A013C30C4B0121180001F046FC3B1D0A4AFE
S11308B09A603B1D094A1900100002F023FA074B05
S11308C0074A5A65FB691800BD4609B090BDC04689
S11308D0C441000000320400E067350000C4004059
S11308E00A03000080B584B000AF7860396000234B
S11308F0FB6021E03B68012B03D07B68012213409D
S11309000DD07B681B78134A1900100002F0B2FA6C
S11309103B68013B3B607B6801337B600CE07B6898
S11309201B880C4A1900100002F0B9FA3B68023B1C
S11309303B607B6802337B603B68002BDAD1C046A6
S1130940044B1B6920221340FAD0FB681800BD46F3
S113095004B080BD00C4004080B582B000AF002365
S11309607B6000F0DBFE7B681800BD4602B080BDF2
S113097080B584B000AF78600023FB607B6818000A
S113098000F0C6FFFB681800BD4604B080BD00003F
S113099080B582B000AF00237B60054B01211800B5
S11309A001F0CAFB7B681800BD4602B080BDC0469A
S11309B00072040090B587B000AFF860B9603B6086
S11309C0FB1D1A7000237B61FB1D1B78002B0FD1CC
S11309D013217B1804221A70C046FB68D8B23C6805
S11309E07B181A78B968230001F05CFF7B6900E08A
S11309F0024B1800BD4607B090BDC04601001380ED
S1130A0080B584B000AF786039600023FB607B68F8
S1130A10DBB23A6811001800FFF7DEFEFB6818002D
S1130A20BD4604B080BD80B584B000AF7860396045
S1130A300023FB607B68DBB23A6811001800FFF703
S1130A4071FEFB681800BD4604B080BD80B588B057
S1130A5000AFF860B9607A600023FB61A0239B03B8
S1130A60BB6101237B61154B0121180001F064FB7C
S1130A707A69BB691900022001F0F4FF104B9B68EE
S1130A80104A1A400E4B802189000A439A600C4B8D
S1130A909A680B4B04210A439A60FB68D8B2B96880
S1130AA00023042201F0FEFE7B68180000F020F809
S1130AB0FB691800BD4608B080BDC0460042040072
S1130AC000C00C40FFF8FFFF80B582B000AF786033
S1130AD0064B0121180001F02FFB7B680A21180046
S1130AE001F0CEFCC046BD4602B080BD002302002A
S1130AF090B585B000AF78600C243B191C4A11886E
S1130B00198092789A701B4B1800FFF7DDFF1A4B7F
S1130B100221180001F03EFA174B0121180001F0E0
S1130B200BFB3B1900221A703B1900225A703B1927
S1130B3001229A703B19180002F060F80E4B18005D
S1130B4001F054FB03007968180002F0E9F903008E
S1130B50013B1B021B0A1900002001F0F5FF02F003
S1130B6073F8012002F01EF8C046BD4605B090BDE2
S1130B70DC41000002001E008006120080B582B035
S1130B8000AF786000231800BD4602B080BD80B578
S1130B9082B000AF7860FEE780B582B000AF7860C5
S1130BA039603B68802292015A6000231800BD46D8
S1130BB002B080BD80B582B000AF78600123180018
S1130BC0BD4602B080BD80B584B000AFF860B960A6
S1130BD07A6000231800BD4604B080BD80B586B09D
S1130BE000AFF860B9607A6000237B610FE000F029
S1130BF08FF803003B613B6901330ED0BB685A1C7C
S1130C00BA603A69D2B21A707B6901337B617B683E
S1130C105A1E7A60002BEAD100E0C0467B69002BA3
S1130C2002DC01235B4200E07B691800BD4606B08C
S1130C3080BD000080B584B000AF78600A4B1B68AB
S1130C40002B02D1084B094A1A60074B1B68FB6052
S1130C50054B1A687B68D218034B1A60FB681800AE
S1130C60BD4604B080BDC046D8020020B8040020B0
S1130C7080B586B000AFF860B9607A6000237B610C
S1130C8009E0BB685A1CBA601B78180000F048F8E9
S1130C907B6901337B617A697B689A42F1DB7B680B
S1130CA01800BD4606B080BD80B58EB000AF0823E5
S1130CB0FB1819000020FFF739FB03007B637B6BF3
S1130CC0002B1BD13B0000221A603B0000221A714A
S1130CD03B0001225A710C4A3B001100180000F03D
S1130CE03DF803007B637B6B002B07D1074B1B682C
S1130CF0986800230222002102F042FA7B6B18005C
S1130D00BD460EB080BDC046DC0200202C00002091
S1130D1080B500AF01235B421800BD4680BD0000D2
S1130D2080B582B000AF0200FB1D1A700A4B1B682D
S1130D30002B0AD0084B1A68FB1D1B781900100001
S1130D4000F0EEF8FB1D1B7801E001235B42180064
S1130D50BD4602B080BDC046DC02002090B587B01D
S1130D6000AF7860396000237B6100233B6116E0AB
S1130D70674A3B69552158204343D3185B181B78B5
S1130D8001225340DBB2002B06D03B6958225A4360
S1130D905F4BD3187B6105E03B6901333B613B69E1
S1130DA0002BE5DD7B69002B01D15A4BABE07B685E
S1130DB01A687B69043319001000FFF7B7FA0300BF
S1130DC0BB60BB68002B01D0BB689CE07B695B7D8A
S1130DD0002B21D17B69DC697B69181D7B699968CB
S1130DE07B693C330822A0470300BB60BB68002B2F
S1130DF001D0BB6887E07B699C6A7B69181D7B69AD
S1130E00D96B7B699A680823A0470300BB60BB6861
S1130E10002B04D0BB6876E07B690022DA633E4B8A
S1130E203A691201D2587B691B69DB089A4201D9DD
S1130E303A4B68E0384A3B691B01D31804331A68FB
S1130E407B699B68DB089A4201D9344B5BE0324BE7
S1130E503A691201D2587B695A632F4A3B691B01D4
S1130E60D31804331A687B691A632B4A3B691B0144
S1130E70D31808331A687B691A64274A3B691B0133
S1130E80D3180C331A687B695A647B681A687B69C7
S1130E901A607B6819797B69382299547B6859797F
S1130EA07B69392299540023FB600FE07B69196C3C
S1130EB07B691B6BFA685A437B69586CFB689B001F
S1130EC0C3188A181A60FB680133FB607B695B6B8B
S1130ED0FA689A42EAD37B694822002199547B69D3
S1130EE04922002199547B694A22002199547B6943
S1130EF0180000F08FF87B695522012199543B6852
S1130F007A691A6000231800BD4607B090BDC04638
S1130F10E002002005001280180000200200128068
S1130F2080B584B000AF78600A00FB1C1A707B683F
S1130F30FB60FB6855229B5C01225340DBB2002B13
S1130F4001D0334B60E0FB685B7D002B04D1FB6870
S1130F5054220121995403E0FB685422022199543C
S1130F60FB6838229B5C002B0FD0FB68DB6C002BEA
S1130F7017D1FB681A6DFB685B6B013B9A4210D179
S1130F80FB685422002199540BE0FB68DB6C002BB6
S1130F9007D1FB681B6D002B03D1FB685422002191
S1130FA09954FB1C1B780C2B0DD1FB68180000F026
S1130FB031F8FB68542200219954FB68180000F0B2
S1130FC0F1FA030020E0FB6839229B5C002B08D077
S1130FD0FB1C1B780A2B04D1FB680D21180000F0C0
S1130FE05BF9FB1C1A78FB681100180000F054F937
S1130FF0FB6854229B5C032B05D0FB68180000F0AF
S1131000D1FA030000E000231800BD4604B080BDFF
S11310100600128080B582B000AF78607B685B6C9C
S1131020002B14D07B68186C7B685A6B7B681B6B35
S113103053431A00002102F080F87B680022DA642E
S11310407B6800221A657B68542200219954C046AB
S1131050BD4602B080BD000080B584B000AF7860AA
S11310600023FB6014E07B685A6CFB689B00D31878
S113107018687B685A6CFB6801339B00D3181968A5
S11310807B681B6B1A0002F04FF8FB680133FB60AE
S11310907B685B6B013BFA689A42E4D37B685A6CC9
S11310A07B685B6B0D498C4663449B00D3181868BE
S11310B07B681B6B1A00002102F03FF87B6800225A
S11310C0DA647B685B6B5A1E7B681A657B68542202
S11310D000219954C046BD4604B080BDFFFFFF3FC8
S11310E080B586B000AF786039600F23FB1800220A
S11310F01A703B681B2B0FD1644B0422002118008B
S113110002F01BF83B68DAB2604B1A707B68542219
S1131110032199540123B4E05C4B1B781B2B01D0B1
S11311200023AEE0594B7B617B6901337B617B69B2
S11311301B78002BF8D13B68DAB27B691A70534BE9
S1131140180002F0C9F80300BB6000233B6171E0A2
S11311503B699A004E4BD118BA684C4B180002F008
S1131160C2F8031E63D10F23FB1801221A707B6897
S11311705422032199543B699A00454BD318180013
S113118002F0AAF80200BB68934257D13B69052BD1
S113119041D83B699A003F4BD3181B689F467B6834
S11311A000221A657B680022DA6434E07B681B6DD8
S11311B0002B29D07B681B6D5A1E7B681A6523E0BF
S11311C07B681A6D7B685B6B013B9A421ED27B681D
S11311D01B6D5A1C7B681A6518E07B68DA6C7B68A7
S11311E01B6B013B9A4213D27B68DB6C5A1C7B68F5
S11311F0DA640DE07B68DB6C002B0BD07B68DB6C66
S11312005A1E7B68DA6405E0C04604E0C04602E08A
S1131210C04600E0C0461D4B04220021180001F026
S11312208CFF7B68542203219954012329E03B69F4
S113123001333B613B69052B8ADD00E0C0460F2387
S1131240FB181B7801225340DBB2002B07D00F4B55
S113125004220021180001F070FF002311E0BB6894
S1131260032B0BD1094B04220021180001F065FF68
S11312707B68542203219954012302E00F23FB18B5
S11312801B781800BD4606B080BDC0463803002058
S1131290184500000045000080B582B000AF7860BA
S11312A039603B680A2B08D00D2B02D0082B27D0BD
S11312B03BE07B680022DA648CE07B681B6D5A1C7F
S11312C07B681A657B680022DA647B681A6D7B6828
S11312D05B6B9A4200D27AE07B6838229B5C002BDD
S11312E009D07B681800FFF7B7FE7B685B6B5A1E5A
S11312F07B681A656BE07B681800FFF78BFE66E07D
S11313007B681B7D002B10D07B681B7D012B0CD0D0
S11313107B684822FF2199547B6849220021995413
S11313207B684A220021995454E03A687B68110092
S11313301800FFF7D5FE031E4BD101F0D5FE0200C5
S11313403B680133D3181B781A009723134001D14B
S113135020233B607B68DA6C7B681B6B9A4207D363
S11313607B680022DA647B681B6D5A1C7B681A65F3
S11313707B681A6D7B685B6B9A4212D37B68382258
S11313809B5C002B09D07B681800FFF765FE7B6827
S11313905B6B5A1E7B681A6503E07B681800FFF7D5
S11313A039FE3B68DAB27B68596C7B681B6D9B0025
S11313B0CB1819687B68DB6CCB18203AD2B21A7050
S11313C07B68DB6C5A1C7B68DA64C04602E0C0466A
S11313D000E0C046BD4602B080BD0000B0B58EB08E
S11313E002AF786039607B68DB6B7B620023BB6291
S11313F0BAE00023FB6235E07B685A6C3B689B00D3
S1131400D3181A68FB6AD2180F217B1812781A7045
S11314107B181A78BB6A64214B43D2180E23FB183D
S11314205E498A5C1A707B681B7D002B03D014DB39
S1131430022B12DC07E07A6AFB6AD3180E22BA1870
S113144012781A700BE07A6AFB6AD3180E22BA1863
S11314501278D243D2B21A7001E0514B9AE0FB6A7F
S11314600133FB627B681B6BFA6A9A42C4D37B68C4
S11314701B7D022B6FD17B6848229B5CDB09DBB2AE
S11314805AB27B6849215B5C9B115BB202210B4021
S11314905BB213435AB27B684A215B5C5B115BB25B
S11314A004210B405BB213435AB21723FB181A7082
S11314B07B6A3B617B689B68DB08013BFB6147E01F
S11314C000233B620023BB611CE0FB693A69D3182B
S11314D01B781A00BB691A4113000122134003D17F
S11314E01723FB181A7800E00722B9690B005B0088
S11314F05B189A4013001A003B6A13433B62BB69B2
S11315000133BB61BB69072BDFDDFA6913005B00A4
S11315109B181A003B699B183A6AD2B21A703B6A4C
S1131520190AFA6913005B009B1801333A69D3184E
S1131530CAB21A703B6A190CFA6913005B009B1853
S113154002333A69D318CAB21A70FB69013BFB61D2
S1131550FB69002BB4DA7B68DB68DB087A6AD31892
S11315607B62BB6A0133BB62BB6A072B00D840E7CE
S11315707B685C6A7B68181D7B68D96B7B681B6B16
S1131580DD003B68DB000822019200932B0000225F
S1131590A04703001800BD460CB0B0BDE0410000F8
S11315A00400128090B587B002AF78607B68542243
S11315B09B5C012B00D175E0022B00D181E0002B54
S11315C002D0C04600237DE07B685B7D002B66D1A2
S11315D00023FB6008E0FA687B6811001800FFF73D
S11315E0FDFEFB680133FB607B685B6BFA689A4223
S11315F0F1D37B685B6BDA007B681B699A4250D23B
S11316007B681B7D012B0DD0022B15D0002B20D124
S11316107B68D86B7B689B68DB081A00002101F0AB
S11316208CFD18E07B68D86B7B689B68DB081A002C
S1131630FF2101F082FD0EE07B68D86B7B689A681D
S113164013005B009B18DB081A00FF2101F075FDF5
S113165001E01E4B36E07B685B6BDB00FB6018E04F
S11316607B685C6A7B68181D7B68D96B7B689A68A9
S113167001230193FB68009313000022A047030099
S1131680BB60BB68002B01D0BB681BE0FB68013367
S1131690FB607B681B69FA689A42E1D301E00B4B5B
S11316A010E0C0467B685B7D002B08D17B681A6D17
S11316B07B6811001800FFF791FE030002E0034B62
S11316C000E0024B1800BD4605B090BD0400128036
S11316D080B582B000AF0200FB1D1A70FB1D1B78A1
S11316E07F2B0AD8FB1D1B781A001F2313400549C2
S11316F001229A40C0235B00CA50C046BD4602B0D6
S113170080BDC04600E100E080B500AF024B5B68DD
S11317101800BD4680BDC04600000840B0B58AB080
S113172000AF2723FB1800221A702623FB1800227F
S11317301A702523FB1800221A702423FB18002298
S11317401A702323FB1800221A703B006A4A11887E
S1131750198092789A700023FB610023BB610023F7
S11317607B6100233B61654B1B6C0422134008D151
S1131770634B0121180000F0DFFC2723FB18012232
S11317801A700F257C195F4B180000F0CFFD030081
S113179023707B191B78032B03D02523FB1801220C
S11317A01A70564BDB6A4022134003D12423FB18E2
S11317B001221A70534B0321180000F061FE524BB2
S11317C0180000F069FB0300BB6080235B004E4AF5
S11317D01900100000F0DEFB484B9B6D0122134002
S11317E008D1494B0121180000F0A6FC2623FB1860
S11317F001221A7000F088FF03007B60434B1B68D2
S1131800012213401BD0414B1B68FB613F4B9B687B
S1131810BB613E4BDB687B613C4BDB693B613B4B13
S113182000221A60394B0022DA61384B07229A6190
S11318300C20FFF74DFF2323FB1801221A703B00F5
S113184000229A703B00180001F0D8F900F07CF8EF
S11318507B68180000F066FF2323FB181B78002B1D
S113186018D0BB68284A1900100000F093FB01202F
S113187001F0ACF9254BBA699A60244B7A69DA60B5
S1131880224BFA691A60214B3A69DA61002001F0AF
S11318909DF902E0002001F085F92623FB181B784E
S11318A0002B04D0184B0021180000F045FC252320
S11318B0FB181B78002B07D00F23FB181B78114A49
S11318C01900100000F0DCFD2423FB181B78002B0A
S11318D004D000220021012000F0ACFE2723FB18D5
S11318E01B78002B04D0064B0021180000F024FCC8
S11318F0C046BD460AB0B0BD3045000000800C4073
S11319000023020002001E008006120000000840AE
S113191080B582B000AF78607B680A49002B0CD098
S1131920013B88221202003253430A68D80AD20AC1
S11319305043800901D00138FDD8C046BD4602B0ED
S113194080BDC0462800002080B584B000AF0823C5
S1131950BB60344B802252011A601CE000F064F832
S113196003007B60C04600F05FF802007B6893428E
S1131970F9D000F059F803007B602A4B1B6818006B
S113198000F05AF800F050F802007B68D31A7B602C
S11319907B68002B06D1234B1B685B00214A136034
S11319A0DCD100E0C0461F4B1B685A081D4B1A606F
S11319B01C4B1B68FB6026E01A4B1A68FB681A4331
S11319C0184B1A6000F030F803007B60C04600F04A
S11319D02BF802007B689342F9D000F025F803004D
S11319E07B60104B1B68180000F026F800F01CF810
S11319F002007B68934206D0FB68DA43094B1B68FC
S1131A001A40084B1A60BB685A1EBA60002B05D0F6
S1131A10FB685B08FB60FB68002BCDD1C046BD466C
S1131A2004B080BD2800002080B500AFFFF76CFE35
S1131A3003001800BD4680BD80B582B000AF786059
S1131A407B68013BFDD8C046BD4602B080BD80B571
S1131A5082B000AF78603960FEE780B586B000AF31
S1131A60F860B9607A60FB681B687B610122BB681F
S1131A709A401300DB431A007B691A407B680121FA
S1131A801940BB6899400B001A43FB681A60C046B2
S1131A90BD4606B080BD80B582B000AF78603960C5
S1131AA07B681A683B68DA4013000122134018006F
S1131AB0BD4602B080BD000080B584B000AF786040
S1131AC07B68002B04D07A6880231B029A4205D9D4
S1131AD0094A0A4B11001800FFF7B9FF786801F0B2
S1131AE0ABFA0300DBB21A001F239B1AFB60FB68EE
S1131AF01800BD4604B080BDC20900003445000092
S1131B0080B582B000AF78607B681F2B05D9074A87
S1131B10074B11001800FFF79AFF01227B689A40D7
S1131B2013001800BD4602B080BDC0464E0A000036
S1131B303445000080B500AF034BDB6C1B0EDBB2F9
S1131B401800BD4680BDC046B081E00F80B582B0AC
S1131B5000AF254B5A69E023DB001340802292003A
S1131B6093421ED080229200934206D8002B26D0A6
S1131B708022520093421FD027E0C0229200934259
S1131B8004D0E022D20093421CD01EE0FFF7D2FF23
S1131B900300122B02D9154B7B6020E0144B7B60B1
S1131BA01DE0FFF7C7FF0300122B02D9114B7B6026
S1131BB015E0114B7B6012E0104B7B600FE0104B83
S1131BC07B600CE00F4B7B6009E000237B60A62365
S1131BD01A010D4B11001800FFF739FFC0467B684E
S1131BE01800BD4602B080BD00800C40804F12003A
S1131BF040420F0040B56400C0CF6A00C0D8A700BF
S1131C00809FD500406F40019845000090B583B097
S1131C1000AFFC1C114B180000F088FB030023707C
S1131C20FB1C1B78072B06D0092B09D1FEF7CAFA37
S1131C3003007B600DE0FFF789FF03007B6008E091
S1131C4000237B60064A074B11001800FFF7FFFED4
S1131C50C0467B681800BD4603B090BD06000E0068
S1131C609A0A00009845000080B584B000AF7860FF
S1131C7039600F4B5B6807221340FB607B680D4A99
S1131C80934202D80023FB6005E07B680A4A934232
S1131C9001D80123FB60064B5B68072293431900BC
S1131CA0034BFA680A435A60C046BD4604B080BD7F
S1131CB000000C400024F4000048E80180B582B024
S1131CC000AF0D4BDA6BFB1D511E8A411A700A4B93
S1131CD00A4ADA63FEF76EFA030000211800FFF7E0
S1131CE0C3FFFB1D1B78002B02D0034B0022DA63D9
S1131CF0C046BD4602B080BD00000C40711B000010
S1131D0090B585B000AF786039600D4BDA6B0F2465
S1131D103B19511E8A411A70094B0A4ADA633A6820
S1131D207B6811001800FFF79FFF3B191B78002BFD
S1131D3002D0034B0022DA63C046BD4605B090BD15
S1131D4000000C40711B000080B584B000AF7860C7
S1131D500023BB607B68394A934209D0384A9342D6
S1131D6006D0384A384B11001800FFF770FE00E027
S1131D70C0467B68180000F0D9FA0300FB607B685A
S1131D802E4A934203D02E4A934206D00CE02F4BA6
S1131D909B6A03221340FB600DE02C4B9B6A9B085B
S1131DA003221340FB6006E0294A274B1100180068
S1131DB0FFF74DFEC046FB68012B05D014D3022B60
S1131DC007D0032B0AD02AE0FEF76EFA0300BB60AB
S1131DD02FE0FEF777FA0300BB602AE0FEF7CEF9A6
S1131DE003005B08BB6024E00023BB607B68134AEC
S1131DF0934203D07B68124A934219D1134B9A6AD7
S1131E007B680E498B4201D1102300E01423DA4091
S1131E10131E0DD0FEF74FFA0300BB6008E0002349
S1131E20BB600C4A084B11001800FFF710FE00E0DD
S1131E30C046BB681800BD4604B080BD02001E0049
S1131E4003002000C90C00009845000000800C40ED
S1131E50F80C0000230D000080B582B000AF78605C
S1131E60074B5B6D0122134006D1C046044B1B6D2A
S1131E707A681340FAD100E0C046BD4602B080BD86
S1131E8000800C4080B500AFC046BD4680BD80B523
S1131E9000AFC046BD4680BD80B584B000AF786059
S1131EA07B681B090F221340BB60BB68072B14D04F
S1131EB002D8042B05D050E0082B1AD0092B32D0BD
S1131EC04BE02D4B9B680F221340FB60FB6818000E
S1131ED0FFF716FE0300FB6048E0274B5B680F2208
S1131EE01340FB60FB681800FFF70AFE0300FB6069
S1131EF03CE07B68214A93420BD11F4B9B6E0F221F
S1131F001340FB60FB681800FFF7FAFD0300FB6059
S1131F1008E00123FB601A4A1A4B11001800FFF76E
S1131F2096FDC04622E07B68174A93420BD1124BC0
S1131F301B6F03221340FB60FB681800FFF7E0FDF2
S1131F400300FB6008E00123FB60104A0D4B110005
S1131F501800FFF77CFDC04608E00123FB600C4A33
S1131F60084B11001800FFF772FDC046FB6818000B
S1131F70BD4604B080BDC04600800C4080061200FF
S1131F80CC0F00009845000090071A00E50F0000F0
S1131F90EC0F000080B584B000AF786039607B68D6
S1131FA01B090F221340FB60FB68072B27D002D8C4
S1131FB0042B06D09EE0082B4AD0092B00D171E0F7
S1131FC098E03B68002B04D03A6880239B009A4237
S1131FD005D94E4A4E4B11001800FFF738FD3B68F7
S1131FE01800FFF769FD03003B604A4B9B680F2212
S1131FF093431900474B3A680A439A6081E03B686F
S1132000002B04D03A6880239B009A4205D9424AA7
S11320103F4B11001800FFF71AFDFFF74FFE3B6816
S11320201800FFF749FD03003B603A4B5B680F2241
S113203093431900374B3A680A435A60FEF79EF8F7
S11320400300BB60BB6800211800FFF759FE58E08D
S11320507B68324A93421DD13A6880231B029A421C
S113206005D92F4A2A4B11001800FFF7F0FC042071
S1132070FFF7F2FE3B681800FFF71EFD03003B600C
S1132080244B9B6E0F2293431900224B3A680A4358
S11320909A6606E0234A1E4B11001800FFF7D7FC8E
S11320A0C0462EE07B68204A93421BD13B68082B34
S11320B005D91E4A164B11001800FFF7C8FC402032
S11320C0FFF7CAFE3B681800FFF7F6FC03003B600D
S11320D0104B1B6F0322934319000E4B3A680A43BB
S11320E01A6706E0124A0A4B11001800FFF7AFFC0A
S11320F0C04606E00F4A064B11001800FFF7A7FC84
S1132100C046C046BD4604B080BDC0462C10000089
S11321109845000000800C40341000008006120036
S11321204F1000008A10000090071A00931000005E
S1132130B0100000B610000080B586B000AF786023
S11321400A00FB1C1A7000233B617B681B0A0F22E8
S113215013400A2B1AD89A001B4BD3181B689F46AE
S11321601A4B7B6119E01A4B7B6116E0194B7B61BA
S113217013E0194B7B6101233B610EE0174B7B613C
S113218010233B6109E0164B7B6106E0154A164BB0
S113219011001800FFF75BFC12E07B681B0B1F2289
S11321A01340FB603B69002B03D03B691800FFF729
S11321B053FEFB1C1A78F9687B691800FFF74DFC85
S11321C0BD4606B080BDC046AC45000040800C4012
S11321D008800C4044800C4058800C4060800C40C7
S11321E078800C403C1100009845000080B584B014
S11321F000AF78607A68F8239B031340802252036F
S1132200934200D175E080225203934213D8802276
S11322109202934237D080229202934202D8002B3A
S11322201FD06BE08022D20293421FD0E02212031F
S1132230934259D062E0D0225203934245D0D02237
S11322405203934204D890225203934227D055E07C
S1132250F022520393421BD08022920393422DD04A
S11322604CE0FDF7AFFF0300FB6050E0FDF7AAFF71
S11322700300FB60284B9B680F221340FA68DA4086
S11322801300FB6043E0FDF779FF0300FB603EE0D1
S1132290224B1800FFF758FD0300FB6037E01F4B8B
S11322A01800FFF751FD0300FB601B4B9B6E0F22D0
S11322B01340FA68DA401300FB6028E0184B18005A
S11322C0FFF742FD0300FB6021E0154B1800FFF708
S11322D03BFD0300FB60104B1B6F03221340FA68A5
S11322E0DA401300FB6012E0FFF790FC0300FB6090
S11322F00DE0FFF72BFC0300FB6008E00023FB600C
S1132300084A094B11001800FFF7A1FBC046FB68FF
S11323101800BD4604B080BD00800C4002001E00C1
S113232003002000621200009845000080B584B0CC
S113233000AF78600F23FB1801221A707B680F220C
S11323401340BB60BB68022B30D002D8012B06D0EF
S11323507DE0032B50D0062B00D173E077E0454B92
S1132360DA6AF0239B0113408022520193420DD07C
S113237080229201934204D08022120193420AD017
S11323800EE00F23FB1802221A700EE00F23FB1835
S113239003221A7009E00F23FB1804221A7004E0C8
S11323A00F23FB1805221A70C0465BE0314B9B6A71
S11323B003221340022B08D0032B0BD0012B0ED188
S11323C00F23FB1803221A7015E00F23FB180222B7
S11323D01A7010E00F23FB1806221A700BE0254B2D
S11323E09A6A80235B02134004D00F23FB180A224D
S11323F01A7000E0C04635E01E4B9B6A0C22134065
S1132400082B08D00C2B0BD0042B0ED10F23FB1858
S113241003221A7015E00F23FB1802221A7010E031
S11324200F23FB1806221A700BE0124B9A6A8023C2
S11324305B03134004D00F23FB180A221A7000E038
S1132440C0460FE00F23FB1807221A700AE00F237F
S1132450FB1800221A70084A084B11001800FFF7F5
S1132460F6FAC0460F23FB181B781800BD4604B0CB
S113247080BDC04600800C407616000098450000E0
S113248080B588B000AF78600A00FB1C1A70032383
S1132490FB611B23FB1803221A7000233B617B683A
S11324A00F221340FB60FB68012B05D000D2A0E093
S11324B0032B00D99DE04DE0FB1C1B780A2B27D889
S11324C09A00514BD3181B689F460423FB611B23BE
S11324D0FB1800221A7022E00323FB611B23FB1864
S11324E001221A701BE00223FB611B23FB1802224A
S11324F01A7014E00123FB611B23FB1803221A70DA
S11325000DE0424A424B11001800FFF7A0FA77E0B1
S1132510404A3F4B11001800FFF799FA70E01B2363
S1132520FB181B7801220121180000F083F8FFF743
S1132530C5FBFFF7A7FC384BFA695A62FDF71EFE8C
S11325400300BB60BB6800211800FFF7D9FBFFF74D
S11325509EFC55E0FB1C1B780A2B25D89A002F4BB8
S1132560D3181B689F4600237B6124E001220121CC
S1132570002000F05FF802237B611CE001220121AE
S1132580012000F057F801237B6114E0244B012261
S113259002211800FFF761FA03237B610BE000239B
S11325A07B6101233B6106E01E4A194B11001800B0
S11325B0FFF74DFA24E0FB68022B0CD1164B9B6A03
S11325C0194A1A407B691A4311003B691A04124BD9
S11325D00A439A6214E0104B9B6A144A1A407B69BE
S11325E09B001A4311003B691A050B4B0A439A627C
S11325F006E00F4A064B11001800FFF728FAC04600
S1132600BD4608B080BDC046D84500003417000060
S1132610984500003917000000800C400446000073
S113262040800C40DD170000FCFFFEFFF3FFEFFFCE
S11326306D19000090B587B000AF040008001100C8
S1132640FB1D221C1A70BB1D021C1A707B1D0A1C68
S11326501A70FB1D1B78042B29D89A00254BD3181C
S11326601B689F4601233B610223FB6001237B61BE
S113267024E004233B610823FB6003237B611DE00A
S113268010233B612023FB6005237B6116E040237C
S11326903B618023FB6007237B610FE080235B00A9
S11326A03B6180239B00FB6009237B6106E0124AA7
S11326B0124B11001800FFF7CAF917E0BB1D1B7875
S11326C0002B10D00E4B3A691A627B1D1B78002B2D
S11326D00CD0C0467B690B4A19001000FFF7DBF9E8
S11326E0031EF7D002E0064BFA681A62BD4607B033
S11326F090BDC04630460000651D000098450000AE
S113270000800C402C800C4080B582B000AFEFF309
S113271010833B603B687B6072B67B681800BD46E3
S113272002B080BD80B582B000AF78607B68002BBA
S113273000D162B6C046BD4602B080BD80B582B04D
S113274000AF02003960FB1D1A70FB1D1B78002BC3
S11327501FD0FB1D1B78012B19D0FB1D1B78022BEE
S113276013D0FB1D1B78032B0DD0FB1D1B78042BF2
S113277007D0FB1D1B78052B01D13F230AE0002362
S113278008E0134B06E0134B04E0134B02E0134B39
S113279000E0134B3A6813410122134005D1114A5A
S11327A0114B11001800FFF752F901223B689A40BF
S11327B010000E49FB1D1A781300DB009B189B00C8
S11327C0CB1814331860C046BD4602B080BDC04665
S11327D0F0FF0000FF010000FFFF0000F879000097
S11327E07FF70000DD030000444600000060004065
S11327F080B582B000AF02003960FB1D1A70FB1D6A
S11328001B78002B1FD0FB1D1B78012B19D0FB1D3F
S11328101B78022B13D0FB1D1B78032B0DD0FB1D43
S11328201B78042B07D0FB1D1B78052B01D13F23FC
S11328300AE0002308E0134B06E0134B04E0134BBB
S113284002E0134B00E0134B3A681341012213409A
S113285005D1114A114B11001800FFF7F8F80122B5
S11328603B689A4010000E49FB1D1A781300DB00E8
S11328709B189B00CB1810331860C046BD4602B0AD
S113288080BDC046F0FF0000FF010000FFFF000014
S1132890F87900007FF700000C04000044460000B3
S11328A00060004090B585B000AFB96011007B6056
S11328B00F243B19021C1A700E23FB180A1C1A70F1
S11328C03B191B78002B24D00F23FB181B78012BFA
S11328D01DD00F23FB181B78022B16D00F23FB18D7
S11328E01B78032B0FD00F23FB181B78042B08D065
S11328F00F23FB181B78052B01D13F230AE000238B
S113290008E0504B06E0504B04E0504B02E0504BC3
S113291000E0504BBA6813410122134007D114233D
S1132920FF331A004C4B11001800FFF790F80E23E8
S1132930FB181B78002B13D07B68002B08D0BA68D7
S11329400F23FB181B7811001800FFF751FF07E055
S1132950BA680F23FB181B7811001800FFF7EEFE6E
S1132960BB68072B25D83D490F243B191A7813005F
S1132970DB009B189B00CB1804331B68BA689200D9
S11329800F2191400A00D24313400E22BA18117845
S1132990BA68920091400A00110030483A1912783E
S11329A019431300DB009B189B00C3180433196000
S11329B02AE02A490F243B191A781300DB009B18DC
S11329C09B00CB1808331B68BA6825498C466244BF
S11329D092000F2191400A00D24313400E22BA18EC
S11329E01178BA681E4884466244920091400A00F5
S11329F011001A483A19127819431300DB009B1886
S1132A009B00C318083319600E23FB181B78002B96
S1132A1013D17B68002B08D0BA680F23FB181B78EE
S1132A2011001800FFF7E4FE07E0BA680F23FB1853
S1132A301B7811001800FFF781FEC046BD4605B0A3
S1132A4090BDC046F0FF0000FF010000FFFF000042
S1132A50F87900007FF70000A846000000600040FD
S1132A60F8FFFF3F80B584B000AFF860B9607A60CA
S1132A70BA687B681A43FB680021180000F004F868
S1132A80C046BD4604B080BD80B586B000AFF860D6
S1132A907A600B203B180A1C1A707B68184A134092
S1132AA07B613B181B78002B14D1FB68032B07D9DF
S1132AB09A23FF331A00134B11001800FEF7C7FFC7
S1132AC011497B69802252051A43FB6804339B0039
S1132AD05A5010E0FB68032B07D9A023FF331A00D8
S1132AE0084B11001800FEF7B2FF0749FB680433D6
S1132AF09B007A695A50C046BD4606B080BDC046A8
S1132B0007003F000C47000000C00C4080B586B0B1
S1132B1000AFF860B9607A60FB681B687B610122D2
S1132B20BB689A401300DB431A007B691A407B6838
S1132B3001211940BB6899400B001A43FB681A60D5
S1132B40C046BD4606B080BD80B584B000AF786095
S1132B5039607B68012B04D90F4BAA211800FEF7BA
S1132B6076FF3B681B0E1B0604D00B4BAF211800ED
S1132B70FEF76DFF7B68002B02D0012B03D008E029
S1132B80064BFB6002E0064BFB60C046FB683A68FC
S1132B901A60BD4604B080BD20470000080008400C
S1132BA00C00084080B582B000AF0200FB1D1A7013
S1132BB0FB1D1B7804481A000021FFF7A7FFC0463D
S1132BC0BD4602B080BDC0460000084080B582B05A
S1132BD000AF0200FB1D1A70FB1D1B78002B03D0F5
S1132BE0054B01221A6202E0034B00221A62C0461E
S1132BF0BD4602B080BDC0460000084080B584B028
S1132C0000AF78607B681B78002B02D00123FB6047
S1132C1001E00023FB607B685B78002B03D0FB683A
S1132C2002221343FB607B689B78002B03D0FB6874
S1132C3004221343FB60034BFA681A60C046BD4686
S1132C4004B080BD0000084080B500AF0020FFF74D
S1132C50A9FF0120FFF7A6FFC046BD4680BD80B591
S1132C6082B000AF78600A00FB1C1A70FB1C1B7852
S1132C7010221343DBB21A007B689A65C046BD4636
S1132C8002B080BD80B586B000AFF860B9607A60EC
S1132C907B68002B05D1164A164B11001800FEF76D
S1132CA0D6FEBB68002B05D1134B1800FFF79EFA24
S1132CB00300BB60BB685A1E7B685B0019001000F0
S1132CC000F02EF903007B617B691B027B617B6949
S1132CD00A4A134005D00A4A064B11001800FEF7B1
S1132CE0B6FEFB687A695A61C046BD4606B080BD2F
S1132CF06602000034470000408104003F00E0FF0A
S1132D008302000080B582B000AF786039607B68D0
S1132D10324A934206D0CB239A00314B110018005B
S1132D20FEF795FE7B68180000F05CF87B681A6873
S1132D303B681B8A01210B439BB219003B689B7BB8
S1132D40002B02D08023DB0000E000230B431A4356
S1132D507B681A607B681A683B681B7D002B02D075
S1132D6080239B0500E000231A437B681A603B68BC
S1132D709B7C002B06D03B68DA7C7B681100180032
S1132D80FFF76DFF3B681B7B1A0080235B011A432E
S1132D907B685A603B6859683B689A687B6818008E
S1132DA0FFF770FF3B685B7B002B02D07B6810222F
S1132DB0DA603B685B7D002B06D07B681B68802251
S1132DC052021A437B681A603B681B781A007B68BE
S1132DD0DA60C046BD4602B080BDC04600C40040B3
S1132DE03447000080B582B000AF78607B681B4A2E
S1132DF0934205D01A4A1B4B11001800FEF727FE18
S1132E007B68194ADA607B6800221A607B68174A7B
S1132E105A607B6800229A607B6800225A617B6852
S1132E200022DA647B68124A9A647B6800225A653D
S1132E307B680A4A934202D17B6800221A657B6848
S1132E4000229A657B68054A934202D17B6800227E
S1132E50DA65C046BD4602B080BDC04600C400402D
S1132E60FE03000034470000AA0E00000510000015
S1132E70F91F000080B582B000AF78600A00FB1C27
S1132E801A70C0467B681B6940221340FAD0FB1CB1
S1132E901A787B685A63C046BD4602B080BD80B5CF
S1132EA082B000AF78600A00BB1C1A80C0467B6801
S1132EB01B6940221340FAD0BB1C1A887B68DA6372
S1132EC0C046BD4602B080BD80B500AF024B0122B2
S1132ED01A64C046BD4680BD00000C4080B500AFFA
S1132EE0FFF7F2FF0B4B01221A70FDF7F5F90A4BBD
S1132EF019000020FDF71AFA031E00D0FEE7FDF7C3
S1132F00D3FE031E00D0FEE7044B180000F01EF9A8
S1132F10FEE7C0463C030020400300204847000071
S1132F20002243088B4274D303098B425FD3030A04
S1132F308B4244D3030B8B4228D3030C8B420DD317
S1132F40FF22090212BA030C8B4202D312120902A5
S1132F5065D0030B8B4219D300E0090AC30B8B42E3
S1132F6001D3CB03C01A5241830B8B4201D38B0391
S1132F70C01A5241430B8B4201D34B03C01A524136
S1132F80030B8B4201D30B03C01A5241C30A8B4279
S1132F9001D3CB02C01A5241830A8B4201D38B0264
S1132FA0C01A5241430A8B4201D34B02C01A524108
S1132FB0030A8B4201D30B02C01A5241CDD2C3097A
S1132FC08B4201D3CB01C01A524183098B4201D3F6
S1132FD08B01C01A524143098B4201D34B01C01AE1
S1132FE0524103098B4201D30B01C01A5241C30859
S1132FF08B4201D3CB00C01A524183088B4201D3C8
S11330008B00C01A524143088B4201D34B00C01AB3
S11330105241411A00D20146524110467047FFE71F
S113302001B5002000F006F802BDC0460029F7D023
S113303076E770477047C0461C2101231B04984261
S113304001D3000C10391B0A984201D3000A083935
S11330501B09984201D30009043902A2105C4018EC
S11330607047C04604030202010101010000000090
S113307000000000084B10B50400002B02D0002112
S113308000E000BF054B1868836A002B00D0984706
S11330902000FDF77CFDC046000000005C470000F6
S11330A070B500260C4D0D4C641BA410A64209D12A
S11330B0002601F03DF80A4D0A4C641BA410A642F8
S11330C005D170BDB300EB5898470136EEE7B30065
S11330D0EB5898470136F2E7FC010020FC01002080
S11330E0FC01002000020020044B1B681B6A002B1B
S11330F000D1034BEC3318687047C0462C00002005
S11331009000002082B0002900D101A9101E06D031
S1133110002B06D013780B601078431E984102B040
S1133120704702204042FAE7002310B59A4200D1CA
S113313010BDCC5CC4540133F8E703001218934269
S113314000D1704719700133F9E700000FB40B4B3D
S113315013B51C68002C05D0A369002B02D12000F4
S113316000F0D6F905AB049AA1682000019300F0A1
S1133170A9FB16BC08BC04B01847C0462C000020AC
S1133180F0B51D004F4B85B01E6804000F0000927F
S1133190002E05D0B369002B02D1300000F0B8F93D
S11331A0494B9C4250D17468009B022B05D0012BE3
S11331B000D984E0002D00DA81E02100300000F025
S11331C039F9616B002908D023004433994202D0B5
S11331D0300000F0A7FA002363630023A361636057
S11331E0A3891B0603D52169300000F09BFAA3894B
S11331F0364A1340A381009B022B5AD003AB02AA88
S11332002100300000F018FAA3891843A081002D92
S113321024D1029D280000F07BFA0195071E42D1BB
S1133220029B0193AB4239D1012040420223A2897F
S11332301343A3810023A360230047332360236146
S11332400123636105B0F0BD214B9C4201D1B468F8
S1133250AAE7204B9C42A7D1F468A5E7002FD9D058
S1133260B369002B02D1300000F052F9009B012B0E
S113327003D1A389009A1A43A2810820A389276055
S113328027616561184018D0012018400023984236
S113329011D06D42A360A5611800D3E7019800F036
S11332A037FA071EC0D08023A289019D1343A3814E
S11332B0D6E70020BAE7A560C4E7A060C2E7012012
S11332C04042BFE72C0000208C4800005CF3FFFF65
S11332D0AC4800006C4800000023C25C0133002AA3
S11332E0FBD1581E7047002330B59A420AD0013AE8
S11332F0C45CCD5CAC4204D1934202D00133002CB7
S1133300F6D1631B180030BD0B1E04D0FF2A04D96C
S11333108A2303608B3B180070470A700123FAE785
S1133320F7B58A8905000C00130760D44B68002B9D
S113333004DC0B6C002B01DC0020FEBDE76A002FCF
S1133340FAD000232E682B6080235B01216A1A4087
S113335034D0606DA3895B0706D56368C01A636BBC
S1133360002B01D0236CC01A0200216A002328001C
S1133370E76AB847A189431C06D12B681D2B30D8B6
S11333802B4ADA40D3072CD50023636023692360DA
S1133390CB0405D5431C02D12B68002B00D16065FA
S11333A0616B2E600029C7D023004433994202D0B8
S11333B0280000F0B7F900206063BEE7012328006D
S11333C0B847431CC6D12B68002BC3D01D2B01D09A
S11333D0162B01D12E60AFE74023A2891343A381AA
S11333E0ABE740230B430120A3814042A5E70F69CB
S11333F0002FA1D00B680F60DB1B01930023920701
S113340000D14B69A360019B002B00DC94E7019B76
S11334103A00216A2800A66AB047002803DC40234A
S1133420A2891343DFE7019B3F181B1A0193EAE7C4
S1133430010040200B6970B505000C00002B01D180
S1133440002070BD002804D08369002B01D100F056
S11334505FF80B4B9C4209D16C680C22A35E002BD5
S1133460EED021002800FFF75BFFEAE7054B9C4202
S113347001D1AC68F1E7044B9C42EED1EC68ECE777
S11334808C480000AC4800006C480000002310B5D4
S1133490040003604360836081814366C2810361E9
S11334A043618361190008225C30FFF746FE054B37
S11334B024626362044BA362044BE362044B236300
S11334C010BDC046013E0000293E0000613E0000E0
S11334D08D3E000010B5024900F08CF810BDC046C6
S11334E03534000070B568254A1E55430E00290086
S11334F0743100F061F9041E08D000212A00016033
S113350046600C30A0606832FFF717FE200070BDE3
S1133510836913B50400002B28D18364C364036555
S1133520134B144A1B6882620193984201D1012310
S11335308361200000F020F86060200000F01CF897
S1133540A060200000F018F80022E0600421606808
S1133550FFF79CFF01220921A068FFF797FF0222D1
S11335601221E068FFF792FF0123A36113BDC04657
S11335705C470000D5340000F8B51C4B07001E68FA
S1133580B369002B02D13000FFF7C2FF4836B4689C
S11335907368013B04D53368002B07D03668F6E71F
S11335A00C22A55E002D0DD06834F2E7042138000A
S11335B0FFF798FF30600028F0D10C2304003B6033
S11335C02000F8BD20000A4B656625606560A56093
S11335D0E36025616561A561082229005C30FFF77D
S11335E0ACFD6563A563A564E564E9E75C47000099
S11335F00100FFFFF7B504000700002601914834DD
S1133600002C01D13000FEBD6368A5680093009BC7
S1133610013B009301D52468F2E7AB89012B08D95B
S11336200E22AB5E013304D029003800019B984779
S113363006436835EBE7000070B50E001D000E234D
S1133640C95E96B01400002907DA00232B60B38901
S11336501B0611D48023DB000FE06A4600F00EFD48
S11336600028F2DBF022019B12021340054A9B184A
S11336705A4253412B60EDE740230020236016B0EB
S113368070BDC04600E0FFFFF7B502268B89050038
S11336900C00334206D02300473323602361012307
S11336A06361F7BD01AB6A46FFF7C6FF00990700E7
S11336B0280000F081F8002808D10C22A35E9A05A6
S11336C0EFD4032293431E43A681E4E70F4BAB627E
S11336D08023A28920601343A381009B206163613E
S11336E0019B002B0DD00E23E15E280000F0D8FCD6
S11336F0002806D00322A38993431A00012313430D
S1133700A381A0893843A081CBE7C046D53400000B
S113371010B5034B0100186800F04EF810BDC04608
S11337202C00002070B50500002910D00C1F236860
S1133730002B00DAE418280000F0E3FC1D4A1368AB
S1133740002B05D163601460280000F0DBFC70BD21
S1133750A34209D9216860188342F3D118685B68D1
S113376041182160EEE713005A68002A01D0A242F2
S1133770F9D919685818A0420BD1206809185818AB
S113378019608242E0D110685268411819605A6089
S1133790DAE7A04202D90C232B60D5E72168601830
S11337A0824203D1106852684118216062605C60F3
S11337B0CAE7C0466C030020032370B5CD1C9D43AB
S11337C0083506000C2D1ED20C25A9421DD8300048
S11337D000F097FC254A14682100002919D1244CD3
S11337E02368002B03D1300000F0F8FA2060290090
S11337F0300000F0F3FA431C2BD10C23300033606B
S113380000F080FC03E0002DDFDA0C23336000209D
S113381070BD0B685B1B19D40B2B03D90B60CC1840
S1133820256003E04B688C420DD11360300000F03A
S113383069FC200007220B30231D9043C31AE7D0F4
S11338405A42E250E4E763600C00EFE70C00496879
S1133850C3E70323C41C9C43A042E1D0211A3000D7
S113386000F0BCFA431CDBD1C7E7C0466C03002060
S113387070030020936810B5013B9360002B04DAB9
S11338809469A34207DB0A2905D01368581C106009
S11338901970080010BD00F0FFFA0100F9E7F8B54F
S11338A006000F001400D518AC4201D1002007E037
S11338B021783A003000FFF7DDFF0134431CF3D1D7
S11338C0F8BD0000F0B59FB002900F0016000593FC
S11338D0002805D083690493002B01D1FFF718FE5B
S11338E07B4B9F425BD1029B5F68BB891B0762D500
S11338F03B69002B5FD0002306AC63612033637601
S11339001033A37635002B78002B01D0252B5CD106
S1133910AB1B04930CD0320039000298FFF7BFFFB1
S1133920431C00D1C4E06269049B94466344636110
S11339302B78002B00D1BBE00122002352426260AD
S113394002A9543252186E1C2360E360A360137002
S1133950A365317805225F4800F0C8FB751C002878
S113396035D12268D30604D5532302A95B1820213C
S11339701970130704D5532302A95B182B2119705E
S113398033782A2B2CD0350000210A20E3682A78CA
S11339906E1C303A092A64D900292ED026E04E4BF9
S11339A09F4202D1029B9F689FE74C4B9F429CD150
S11339B0029BDF6899E73900029800F0D7FA0028E3
S11339C099D0012040421FB0F0BD01359BE7414B27
S11339D02268C01A01238340134323602E00B8E7F2
S11339E0059B191D1B680591002B01DB099304E05D
S11339F05B42E3600223134323602B782E2B0AD10E
S1133A006B782A2B35D1059B02351A1D1B6805924C
S1133A10002B2BDB0793324E29780322300000F071
S1133A2065FB002806D04023801B834022680135B3
S1133A3013432360297806222A486E1C217600F05D
S1133A4055FB00283AD0284B002B25D10722059B93
S1133A5007339343083305936369039A9B1863619F
S1133A6050E7434301219B18350090E701235B4253
S1133A70D0E700230A201A000135636029786E1C00
S1133A803039092903D9002BC5D00792C3E7424333
S1133A90012352183500F1E705AB00933A00134BAC
S1133AA02100029800E000BF0390039B0133D3D1AF
S1133AB0BB895B0600D584E70B9884E705AB0093CC
S1133AC03A000A4B2100029800F080F8ECE7C04667
S1133AD08C480000CC480000AC4800006C48000052
S1133AE0D2480000D6480000000000009F380000C3
S1133AF0F7B5150001938A680B6900900C00934296
S1133B0000DA130022002B6043321278002A01D01D
S1133B1001332B6023689B0602D52B6802332B608C
S1133B20062723681F4027D0230043331B785A1EDF
S1133B3093412268920630D42200019943320098BE
S1133B40089EB047431C25D0062320682A68E168F4
S1133B5003400025042B03D18D1AEB43DB171D40D2
S1133B60A3682269934201DD9B1AED180027BD4228
S1133B7020D1002010E00137E3682A689B1ABB4279
S1133B80D2DD22000123193201990098089EB04722
S1133B90431CF0D101204042FEBD3020E1184331E6
S1133BA0087021005A1C45310978A21843320233A7
S1133BB01170C1E7220001231A3201990098089E6E
S1133BC0B047431CE6D00137D1E70000F0B589B017
S1133BD004920A0043320593039002920A7E0C0079
S1133BE00E9B6E2A00D186E01FD8632A33D008D8F2
S1133BF0002A00D18CE0582A4DD0250042352A7085
S1133C0030E0642A01D0692AF7D1196825680A1DB1
S1133C10280629D508681A60002803DA2D23029A99
S1133C20404213706B4E0A274FE0732A74D008D8B1
S1133C306F2A1FD0702AE0D1202209680A4322602B
S1133C4003E0752A16D0782AD7D12200782145328C
S1133C501170614E22E025001A684235111D196069
S1133C6013682B70012365E008681A606906D3D5D0
S1133C7000B2D1E719682568081D186008682E0687
S1133C8005D5544E08276F2A1BD00A2719E06D0664
S1133C90F7D580B2F5E745314E4E0A7018682268B0
S1133CA0011D00681960150621D5D30702D520230C
S1133CB01A4322601027002803D1202322689A4344
S1133CC022602300002243331A706368A360002B30
S1133CD058DB0422216891432160002854D1029DBD
S1133CE0002B5AD02500337842352B7055E0550609
S1133CF0DBD580B2D9E71A680D68101D49691860D0
S1133D0013682E0601D5196002E06D06FBD51980F3
S1133D100023029D23614FE01A68111D1960156884
S1133D2000216268280000F0E1F9002801D0401B5E
S1133D306060636823610023029A13703CE0236986
S1133D402A0004990398059DA847431C3ED0236884
S1133D509B0715D4079BE068984239DA180037E0CE
S1133D6022000123193204990398059EB047431C8D
S1133D702CD00135E368079A9B1AAB42F0DCE9E7E3
S1133D800025F7E70028ADD0029D3900FFF74EF972
S1133D90735C013D2B700028F7D1082F09D12368EB
S1133DA0DB0706D563682269934202DC3023013DB8
S1133DB02B70029B5B1B2361059B07AA00932100C8
S1133DC0049B0398FFF794FE431CB8D101204042A2
S1133DD009B0F0BDDD480000EE480000002370B5D6
S1133DE0064C050008002360FCF724FF431C03D1A4
S1133DF02368002B00D02B6070BDC046B4040020A3
S1133E0070B50C000E25495F00F07EF9002803DB35
S1133E10636D1B18636570BDA389024A1340A381B7
S1133E20F9E7C046FFEFFFFFF8B51F008B890500D7
S1133E300C001600DB0505D50E23C95E0022022303
S1133E4000F040F9A389054A28001340A3813200F9
S1133E500E23E15E3B0000F075F8F8BDFFEFFFFFB5
S1133E6070B50C000E25495F00F02CF9A389421CA3
S1133E7003D1054A1340A38170BD8022520113432C
S1133E80A3816065F8E7C046FFEFFFFF10B50E237E
S1133E90C95E00F0E1F810BDF8B505000E0014008D
S1133EA0002804D08369002B01D1FFF731FB224B9A
S1133EB09C422DD16C68A369A360A3891B0731D5EB
S1133EC02369002B2ED023682269F7B2981A6369FC
S1133ED0F6B2834205DC21002800FFF7ABFA002884
S1133EE026D1A3680130013BA36023685A1C2260D9
S1133EF01F706369834204D0A389DB071AD50A2E95
S1133F0018D121002800FFF795FA002812D00FE0FD
S1133F100A4B9C4201D1AC68CDE7094B9C42CAD103
S1133F20EC68C8E72100280000F020F80028CAD077
S1133F30012676423000F8BD8C480000AC480000F1
S1133F406C48000070B50500080011000022064C02
S1133F5022601A00FCF78CFE431C03D12368002B5B
S1133F6000D02B6070BDC046B4040020364B70B541
S1133F701D6806000C00002D05D0AB69002B02D192
S1133F802800FFF7C5FA314B9C420FD16C680C2313
S1133F90E25E93B219072DD4D90611D40923012066
S1133FA0336037331343A381404270BD284B9C4296
S1133FB001D1AC68EBE7274B9C42E8D1EC68E6E71B
S1133FC05B0713D5616B002908D023004433994261
S1133FD002D03000FFF7A6FB002363632422A389E9
S1133FE09343A38100236360236923600823A28988
S1133FF01343A3812369002B0BD1A0218022A38921
S1134000890092000B40934203D021003000FFF757
S11340103BFB0123A289134011D00023A3606369F1
S11340205B42A361002023698342BED10C23E25E7C
S11340301306BAD540231343A3810138B5E7920789
S113404000D46369A360EDE72C0000208C480000D5
S1134050AC4800006C480000002370B5064C050015
S113406008002360FCF78AFD431C03D12368002B5E
S113407000D02B6070BDC046B4040020002370B58E
S1134080064C0500080011002360FCF785FD431C65
S113409003D12368002B00D02B6070BDB404002032
S11340A0002370B5064C050008002360FCF782FD70
S11340B0431C03D12368002B00D02B6070BDC04685
S11340C0B404002070B50500080011000022064C5D
S11340D022601A00FCF777FD431C03D12368002BF0
S11340E000D02B6070BDC046B4040020C9B2821851
S11340F0904201D10020704703788B42FBD00130FD
S1134100F6E770477047000070B50500080011001D
S11341100022064C22601A00FCF760FD431C03D108
S11341202368002B00D02B6070BDC046B40400206F
S1134130F8B5C046F8BC08BC9E467047F8B5C04602
S1134140F8BC08BC9E4670475368617270204C539B
S113415030313342374448303320233100000000EB
S1134160633A5C73696C69636F6E6C6162735C73F0
S1134170696D706C696369747973747564696F5C73
S113418076345C646576656C6F7065725C73646BC1
S1134190735C6765636B6F5F73646B5F737569747E
S11341A0655C76322E355C706C6174666F726D5C22
S11341B0656D6C69625C696E635C656D5F6770698F
S11341C06F2E6800050000000000000040420F0050
S11341D005010000000000000000000001000100D3
S11341E000186C6C10CE3808600C00000000000051
S11341F07C307C7CC6FE7CFE7C7C000070001C7CD9
S11342007C7C7E7C7EFEFE7CC63C78C606C6C67C74
S11342107E7C7E7C7EC6C6C6C6C6FE7C007C100044
S11342200C00060060003800060000060C000000C8
S113423000000000000000000000003018188C008E
S11342400000000000186CFEFC6A2C1830186C1872
S1134250000000C0C638C6C6C606C6C0C6C6181802
S1134260387C38C6C6C6C6C6C60606C6C618306674
S113427006EECEC6C6C6C6C618C6C6C6C6C6C00CD8
S1134280066038000C00060060000C0006183006BA
S11342900C000000000000001800000000000018DE
S11342A01830D60000000000001848FE162E2C1806
S11342B01830381800000060C63060C0C6060660BA
S11342C0C6C618181C7C70C6F6C6C606C606060600
S11342D0C618303606FEDEC6C6C6C60618C6C6C62C
S11342E06CC6600C0C606C00043C3E3C7C3C3C3C6A
S11342F03E0000660C6E3E3C3E3C363C186666C68C
S113430066667E1818306200000000000018006C19
S11343107C10DC001830FE7E1C7E0030C63030700D
S1134320FE7E7E307CFC00000E00E070F6FE7E0611
S1134330C61E1EF6FE18301E06D6F6C67EC67E7C47
S113434018C6C6D638FC300C1860C6000060660675
S113435066660C66661830360CD6666666666E0649
S11343607C6666C63C66300C0060000000000000FD
S1134370000000FED0E866001830387E1C7E1C1851
S1134380C63018C0C0C0C618C6C018181C7C70300F
S113439076C6C606C60606C6C618303606C6E6C6BD
S11343A006B6C6C018C6C6FE6CC0180C3060000045
S11343B0007C6606667E0C7C6618301E0CD666662B
S11343C03E56063C186666D6187C1818183000004D
S11343D000000000001800FE7EAC660030186C1867
S11343E018001C0CC6300CC6C0C6C60CC6C61818AD
S11343F0387C380006C6C6C6C60606C6C618366663
S113440006C6C6C60666C6C618C66CEEC6C00C0C82
S1134410606000FE0066660666060C606618363646
S11344200CC666660626066018663CD63C600C1808
S113443018300000000000000018006C10E6DC00DA
S1134440600C00180C001C067C78FE7CC07C7C068A
S11344507C7C000C70001C307CC67E7C7EFE06FCDE
S1134460C63C1CC6FEC6C67C06DCC67C187C38C6A8
S1134470C67EFE7CC07C00FE007C3E3C7C3C0C3E48
S113448066701C6638C6663C065C063E707C18FC8A
S1134490663E7E3018180000000000000000000096
S11344A00000000000000000000000000000000008
S11344B000000000000000000000000000000000F8
S11344C000000000000000000000000000000000E8
S11344D000000000000000000000000000000000D8
S11344E000000000000000000000000000000000C8
S11344F000000000000000000000000000000000B8
S11345009E1100009E110000AC110000C0110000BB
S1134510DA110000F41100001B5B48001B48000086
S11345201B4100001B4200001B4300001B44000011
S113453001000100633A5C73696C69636F6E6C61BE
S113454062735C73696D706C696369747973747593
S113455064696F5C76345C646576656C6F706572F3
S11345605C73646B735C6765636B6F5F73646B5FD1
S113457073756974655C76322E355C706C61746633
S11345806F726D5C656D6C69625C696E635C656DB0
S11345905F636D752E6800002E2E2F656D6C696249
S11345A02F656D5F636D752E630000008C21000024
S11345B0662100006C210000602100008C210000B5
S11345C08C210000722100007C2100008C2100005D
S11345D08C21000086210000102500001025000019
S11345E0CA240000D8240000E6240000F4240000BB
S11345F010250000102500001025000010250000E3
S113460002250000A8250000662500006C25000096
S11346107C250000A8250000A82500008C250000AA
S1134620A8250000A8250000A82500009E2500005C
S11346309C2600008E2600007226000064260000DE
S113464080260000633A5C73696C69636F6E6C6109
S113465062735C73696D706C696369747973747582
S113466064696F5C76345C646576656C6F706572E2
S11346705C73646B735C6765636B6F5F73646B5FC0
S113468073756974655C76322E355C706C61746622
S11346906F726D5C656D6C69625C696E635C656D9F
S11346A05F6770696F2E6800433A2F53696C6963C2
S11346B06F6E4C6162732F53696D706C69636974BA
S11346C07953747564696F2F76342F646576656CDD
S11346D06F7065722F73646B732F6765636B6F5FA5
S11346E073646B5F73756974652F76322E352F7022
S11346F06C6174666F726D2F656D6C69622F737275
S1134700632F656D5F6770696F2E63002E2E2F65B2
S11347106D6C69622F656D5F7072732E63000000AB
S11347202E2E2F656D6C69622F656D5F7274632E1A
S1134730630000002E2E2F656D6C69622F656D5F1E
S113474075736172742E63000A0A20486F6C6121CC
S11347500A20577573737570000000003000002044
S11347604300504F534958002E00002020202020A1
S1134770202020202828282828202020202020200D
S113478020202020202020202020208810101010FD
S11347901010101010101010101010040404040451
S11347A0040404040410101010101010414141417D
S11347B04141010101010101010101010101010165
S11347C00101010101011010101010104242424277
S11347D04242020202020202020202020202020235
S11347E00202020202021010101020000000000059
S11347F000000000000000000000000000000000B5
S113480000000000000000000000000000000000A4
S11348100000000000000000000000000000000094
S11348200000000000000000000000000000000084
S11348300000000000000000000000000000000074
S11348400000000000000000000000000000000064
S11348500000000000000000000000000000000054
S11348600000000000000000000000000000000044
S11348700000000000000000000000000000000034
S11348800000000000000000000000000000000024
S11348900000000000000000000000000000000014
S11348A00000000000000000000000000000000004
S11348B000000000000000000000000000000000F4
S11348C0000000000000000000000000232D302B39
S11348D02000686C4C0065666745464700303132FD
S11348E03334353637383941424344454600303154
S11348F032333435363738396162636465660000B3
S107490000000000AF
S10B4904D0B7FF7F01000000A1
S113490C00366E0100800000809FD500F10300008A
S113491C00000000580200201000000010000000ED
S113492C74030020740400200010000030000020E8
S113493C000000008C480000AC4800006C480000EB
S113494C0000000000000000000000000000000057
S113495C0000000000000000000000000000000047
S113496C0000000000000000000000000000000037
S113497C0000000000000000000000000000000027
S113498C0000000000000000000000000000000017
S113499C43000000000000000000000000000000C4
S11349AC00000000000000000000000000000000F7
S11349BC43000000000000000000000000000000A4
S11349CC00000000000000000000000000000000D7
S11349DC4300000000000000000000000000000084
S11349EC00000000000000000000000000000000B7
S11349FC4300000000000000000000000000000064
S1134A0C0000000000000000000000000000000096
S1134A1C4300000000000000000000000000000043
S1134A2C0000000000000000000000000000000076
S1134A3C4300000000000000000000000000000023
S1134A4C0000000000000000000000000000000056
S1134A5C4300000000000000000000000000000003
S1134A6C0000000000000000000000000000000036
S1134A7C0933000005310000000000006A47000003
S1134A8C68470000D1480000D1480000D14800001C
S1134A9CD1480000D1480000D1480000D1480000A2
S1134AACD1480000D1480000FFFFFFFFFFFFFFFFCC
S1134ABCFFFFFFFFFFFF0000010041534349490082
S1134ACC00000000000000000000000000000000D6
S1134ADC000000000000000000004153434949005D
S1134AEC00000000000000000000000000000000B6
S1134AFC000000000000000000000000B5000000F1
S1074B0C8D00000014
S903014DAE
